{
  "_format": "hh-sol-artifact-1",
  "contractName": "Voting",
  "sourceName": "contracts/voting.sol",
  "abi": [
    {
      "anonymous": false,
      "inputs": [
        {
          "indexed": true,
          "internalType": "address",
          "name": "previousOwner",
          "type": "address"
        },
        {
          "indexed": true,
          "internalType": "address",
          "name": "newOwner",
          "type": "address"
        }
      ],
      "name": "OwnershipTransferred",
      "type": "event"
    },
    {
      "anonymous": false,
      "inputs": [
        {
          "indexed": false,
          "internalType": "uint256",
          "name": "proposalId",
          "type": "uint256"
        },
        {
          "indexed": false,
          "internalType": "address",
          "name": "sender",
          "type": "address"
        }
      ],
      "name": "ProposalRegistered",
      "type": "event"
    },
    {
      "anonymous": false,
      "inputs": [
        {
          "indexed": false,
          "internalType": "address",
          "name": "voter",
          "type": "address"
        },
        {
          "indexed": false,
          "internalType": "uint256",
          "name": "proposalId",
          "type": "uint256"
        }
      ],
      "name": "Voted",
      "type": "event"
    },
    {
      "anonymous": false,
      "inputs": [
        {
          "indexed": false,
          "internalType": "address",
          "name": "voterAddress",
          "type": "address"
        },
        {
          "indexed": false,
          "internalType": "address",
          "name": "registeredBy",
          "type": "address"
        }
      ],
      "name": "VoterRegistered",
      "type": "event"
    },
    {
      "anonymous": false,
      "inputs": [
        {
          "indexed": false,
          "internalType": "enum Voting.WorkflowStatus",
          "name": "previousStatus",
          "type": "uint8"
        },
        {
          "indexed": false,
          "internalType": "enum Voting.WorkflowStatus",
          "name": "newStatus",
          "type": "uint8"
        }
      ],
      "name": "WorkflowStatusChange",
      "type": "event"
    },
    {
      "inputs": [
        {
          "internalType": "string",
          "name": "_desc",
          "type": "string"
        }
      ],
      "name": "addProposal",
      "outputs": [],
      "stateMutability": "nonpayable",
      "type": "function"
    },
    {
      "inputs": [
        {
          "internalType": "address",
          "name": "_addr",
          "type": "address"
        }
      ],
      "name": "addVoter",
      "outputs": [],
      "stateMutability": "nonpayable",
      "type": "function"
    },
    {
      "inputs": [],
      "name": "endProposalsRegistering",
      "outputs": [],
      "stateMutability": "nonpayable",
      "type": "function"
    },
    {
      "inputs": [],
      "name": "endVotingSession",
      "outputs": [],
      "stateMutability": "nonpayable",
      "type": "function"
    },
    {
      "inputs": [
        {
          "internalType": "uint256",
          "name": "_id",
          "type": "uint256"
        }
      ],
      "name": "getOneProposal",
      "outputs": [
        {
          "components": [
            {
              "internalType": "string",
              "name": "description",
              "type": "string"
            },
            {
              "internalType": "uint256",
              "name": "voteCount",
              "type": "uint256"
            }
          ],
          "internalType": "struct Voting.Proposal",
          "name": "",
          "type": "tuple"
        }
      ],
      "stateMutability": "view",
      "type": "function"
    },
    {
      "inputs": [],
      "name": "getProposals",
      "outputs": [
        {
          "components": [
            {
              "internalType": "string",
              "name": "description",
              "type": "string"
            },
            {
              "internalType": "uint256",
              "name": "voteCount",
              "type": "uint256"
            }
          ],
          "internalType": "struct Voting.Proposal[]",
          "name": "",
          "type": "tuple[]"
        }
      ],
      "stateMutability": "view",
      "type": "function"
    },
    {
      "inputs": [
        {
          "internalType": "address",
          "name": "_addr",
          "type": "address"
        }
      ],
      "name": "getVoter",
      "outputs": [
        {
          "components": [
            {
              "internalType": "bool",
              "name": "isRegistered",
              "type": "bool"
            },
            {
              "internalType": "bool",
              "name": "hasVoted",
              "type": "bool"
            },
            {
              "internalType": "uint256",
              "name": "votedProposalId",
              "type": "uint256"
            }
          ],
          "internalType": "struct Voting.Voter",
          "name": "",
          "type": "tuple"
        }
      ],
      "stateMutability": "view",
      "type": "function"
    },
    {
      "inputs": [],
      "name": "owner",
      "outputs": [
        {
          "internalType": "address",
          "name": "",
          "type": "address"
        }
      ],
      "stateMutability": "view",
      "type": "function"
    },
    {
      "inputs": [],
      "name": "renounceOwnership",
      "outputs": [],
      "stateMutability": "nonpayable",
      "type": "function"
    },
    {
      "inputs": [
        {
          "internalType": "uint256",
          "name": "_id",
          "type": "uint256"
        }
      ],
      "name": "setVote",
      "outputs": [],
      "stateMutability": "nonpayable",
      "type": "function"
    },
    {
      "inputs": [],
      "name": "startProposalsRegistering",
      "outputs": [],
      "stateMutability": "nonpayable",
      "type": "function"
    },
    {
      "inputs": [],
      "name": "startVotingSession",
      "outputs": [],
      "stateMutability": "nonpayable",
      "type": "function"
    },
    {
      "inputs": [],
      "name": "tallyVotes",
      "outputs": [],
      "stateMutability": "nonpayable",
      "type": "function"
    },
    {
      "inputs": [
        {
          "internalType": "address",
          "name": "newOwner",
          "type": "address"
        }
      ],
      "name": "transferOwnership",
      "outputs": [],
      "stateMutability": "nonpayable",
      "type": "function"
    },
    {
      "inputs": [],
      "name": "winningProposalID",
      "outputs": [
        {
          "internalType": "uint256",
          "name": "",
          "type": "uint256"
        }
      ],
      "stateMutability": "view",
      "type": "function"
    },
    {
      "inputs": [],
      "name": "workflowStatus",
      "outputs": [
        {
          "internalType": "enum Voting.WorkflowStatus",
          "name": "",
          "type": "uint8"
        }
      ],
      "stateMutability": "view",
      "type": "function"
    }
  ],
  "bytecode": "0x60806040523480156200001157600080fd5b5062000032620000266200003860201b60201c565b6200004060201b60201c565b62000104565b600033905090565b60008060009054906101000a900473ffffffffffffffffffffffffffffffffffffffff169050816000806101000a81548173ffffffffffffffffffffffffffffffffffffffff021916908373ffffffffffffffffffffffffffffffffffffffff1602179055508173ffffffffffffffffffffffffffffffffffffffff168173ffffffffffffffffffffffffffffffffffffffff167f8be0079c531659141344cd1fd0a4f28419497f9722a3daafe3b4186f6b6457e060405160405180910390a35050565b61263680620001146000396000f3fe608060405234801561001057600080fd5b50600436106101005760003560e01c8063a7bfab1611610097578063d4f50f9811610066578063d4f50f9814610217578063ee74c67814610247578063f2fde38b14610251578063f4ab9adf1461026d57610100565b8063a7bfab16146101db578063bdc01431146101e5578063c7038a4e14610203578063c88af42f1461020d57610100565b8063715018a6116100d3578063715018a6146101655780638da5cb5b1461016f578063a1edffa21461018d578063a2788cce146101ab57610100565b8063230796ae146101055780632fdae3c514610121578063378a21781461013d57806362564c4814610147575b600080fd5b61011f600480360381019061011a91906114bf565b610289565b005b61013b60048036038101906101369190611551565b6105e0565b005b610145610865565b005b61014f61094b565b60405161015c919061173c565b60405180910390f35b61016d610a46565b005b610177610a5a565b604051610184919061179f565b60405180910390f35b610195610a83565b6040516101a29190611831565b60405180910390f35b6101c560048036038101906101c091906114bf565b610a96565b6040516101d29190611889565b60405180910390f35b6101e3610b6e565b005b6101ed610c54565b6040516101fa91906118ba565b60405180910390f35b61020b610c5a565b005b610215610dd5565b005b610231600480360381019061022c9190611901565b610eba565b60405161023e919061198b565b60405180910390f35b61024f610fe2565b005b61026b60048036038101906102669190611901565b6110c8565b005b61028760048036038101906102829190611901565b61114b565b005b600460003373ffffffffffffffffffffffffffffffffffffffff1673ffffffffffffffffffffffffffffffffffffffff16815260200190815260200160002060000160009054906101000a900460ff16610318576040517f08c379a000000000000000000000000000000000000000000000000000000000815260040161030f90611a03565b60405180910390fd5b6003600581111561032c5761032b6117ba565b5b600260009054906101000a900460ff16600581111561034e5761034d6117ba565b5b1461038e576040517f08c379a000000000000000000000000000000000000000000000000000000000815260040161038590611a95565b60405180910390fd5b60011515600460003373ffffffffffffffffffffffffffffffffffffffff1673ffffffffffffffffffffffffffffffffffffffff16815260200190815260200160002060000160019054906101000a900460ff16151503610424576040517f08c379a000000000000000000000000000000000000000000000000000000000815260040161041b90611b01565b60405180910390fd5b600380549050811061046b576040517f08c379a000000000000000000000000000000000000000000000000000000000815260040161046290611b6d565b60405180910390fd5b80600460003373ffffffffffffffffffffffffffffffffffffffff1673ffffffffffffffffffffffffffffffffffffffff168152602001908152602001600020600101819055506001600460003373ffffffffffffffffffffffffffffffffffffffff1673ffffffffffffffffffffffffffffffffffffffff16815260200190815260200160002060000160016101000a81548160ff0219169083151502179055506003818154811061052157610520611b8d565b5b9060005260206000209060020201600101600081548092919061054390611beb565b919050555060036001548154811061055e5761055d611b8d565b5b9060005260206000209060020201600101546003828154811061058457610583611b8d565b5b90600052602060002090600202016001015411156105a457806001819055505b7f4d99b957a2bc29a30ebd96a7be8e68fe50a3c701db28a91436490b7d53870ca433826040516105d5929190611c33565b60405180910390a150565b600460003373ffffffffffffffffffffffffffffffffffffffff1673ffffffffffffffffffffffffffffffffffffffff16815260200190815260200160002060000160009054906101000a900460ff1661066f576040517f08c379a000000000000000000000000000000000000000000000000000000000815260040161066690611a03565b60405180910390fd5b60016005811115610683576106826117ba565b5b600260009054906101000a900460ff1660058111156106a5576106a46117ba565b5b146106e5576040517f08c379a00000000000000000000000000000000000000000000000000000000081526004016106dc90611ca8565b60405180910390fd5b6040516020016106f490611cee565b60405160208183030381529060405280519060200120828260405160200161071d929190611d4a565b6040516020818303038152906040528051906020012003610773576040517f08c379a000000000000000000000000000000000000000000000000000000000815260040161076a90611de0565b60405180910390fd5b61077b611440565b82828080601f016020809104026020016040519081016040528093929190818152602001838380828437600081840152601f19601f82011690508083019250505050505050816000018190525060038190806001815401808255809150506001900390600052602060002090600202016000909190919091506000820151816000019081610809919061203b565b506020820151816001015550507f37a25c4f10509a80c6e280b123b326571f95fa2b2c26269a4b45d71e7b21f4996001600380549050610849919061210d565b33604051610858929190612141565b60405180910390a1505050565b61086d6112f6565b60046005811115610881576108806117ba565b5b600260009054906101000a900460ff1660058111156108a3576108a26117ba565b5b146108e3576040517f08c379a00000000000000000000000000000000000000000000000000000000081526004016108da906121dc565b60405180910390fd5b6005600260006101000a81548160ff02191690836005811115610909576109086117ba565b5b02179055507f0a97a4ee45751e2abf3e4fc8946939630b11b371ea8ae39ccdc3056e98f5cc3f600460056040516109419291906121fc565b60405180910390a1565b60606003805480602002602001604051908101604052809291908181526020016000905b82821015610a3d57838290600052602060002090600202016040518060400160405290816000820180546109a290611e5e565b80601f01602080910402602001604051908101604052809291908181526020018280546109ce90611e5e565b8015610a1b5780601f106109f057610100808354040283529160200191610a1b565b820191906000526020600020905b8154815290600101906020018083116109fe57829003601f168201915b505050505081526020016001820154815250508152602001906001019061096f565b50505050905090565b610a4e6112f6565b610a586000611374565b565b60008060009054906101000a900473ffffffffffffffffffffffffffffffffffffffff16905090565b600260009054906101000a900460ff1681565b610a9e611440565b60038281548110610ab257610ab1611b8d565b5b9060005260206000209060020201604051806040016040529081600082018054610adb90611e5e565b80601f0160208091040260200160405190810160405280929190818152602001828054610b0790611e5e565b8015610b545780601f10610b2957610100808354040283529160200191610b54565b820191906000526020600020905b815481529060010190602001808311610b3757829003601f168201915b505050505081526020016001820154815250509050919050565b610b766112f6565b60036005811115610b8a57610b896117ba565b5b600260009054906101000a900460ff166005811115610bac57610bab6117ba565b5b14610bec576040517f08c379a0000000000000000000000000000000000000000000000000000000008152600401610be390611a95565b60405180910390fd5b6004600260006101000a81548160ff02191690836005811115610c1257610c116117ba565b5b02179055507f0a97a4ee45751e2abf3e4fc8946939630b11b371ea8ae39ccdc3056e98f5cc3f60036004604051610c4a9291906121fc565b60405180910390a1565b60015481565b610c626112f6565b60006005811115610c7657610c756117ba565b5b600260009054906101000a900460ff166005811115610c9857610c976117ba565b5b14610cd8576040517f08c379a0000000000000000000000000000000000000000000000000000000008152600401610ccf90612297565b60405180910390fd5b6001600260006101000a81548160ff02191690836005811115610cfe57610cfd6117ba565b5b0217905550610d0b611440565b6040518060400160405280600781526020017f47454e4553495300000000000000000000000000000000000000000000000000815250816000018190525060038190806001815401808255809150506001900390600052602060002090600202016000909190919091506000820151816000019081610d8a919061203b565b506020820151816001015550507f0a97a4ee45751e2abf3e4fc8946939630b11b371ea8ae39ccdc3056e98f5cc3f60006001604051610dca9291906121fc565b60405180910390a150565b610ddd6112f6565b60016005811115610df157610df06117ba565b5b600260009054906101000a900460ff166005811115610e1357610e126117ba565b5b14610e53576040517f08c379a0000000000000000000000000000000000000000000000000000000008152600401610e4a90612329565b60405180910390fd5b60028060006101000a81548160ff02191690836005811115610e7857610e776117ba565b5b02179055507f0a97a4ee45751e2abf3e4fc8946939630b11b371ea8ae39ccdc3056e98f5cc3f60016002604051610eb09291906121fc565b60405180910390a1565b610ec261145a565b600460003373ffffffffffffffffffffffffffffffffffffffff1673ffffffffffffffffffffffffffffffffffffffff16815260200190815260200160002060000160009054906101000a900460ff16610f51576040517f08c379a0000000000000000000000000000000000000000000000000000000008152600401610f4890611a03565b60405180910390fd5b600460008373ffffffffffffffffffffffffffffffffffffffff1673ffffffffffffffffffffffffffffffffffffffff1681526020019081526020016000206040518060600160405290816000820160009054906101000a900460ff161515151581526020016000820160019054906101000a900460ff161515151581526020016001820154815250509050919050565b610fea6112f6565b60026005811115610ffe57610ffd6117ba565b5b600260009054906101000a900460ff1660058111156110205761101f6117ba565b5b14611060576040517f08c379a0000000000000000000000000000000000000000000000000000000008152600401611057906123bb565b60405180910390fd5b6003600260006101000a81548160ff02191690836005811115611086576110856117ba565b5b02179055507f0a97a4ee45751e2abf3e4fc8946939630b11b371ea8ae39ccdc3056e98f5cc3f600260036040516110be9291906121fc565b60405180910390a1565b6110d06112f6565b600073ffffffffffffffffffffffffffffffffffffffff168173ffffffffffffffffffffffffffffffffffffffff160361113f576040517f08c379a00000000000000000000000000000000000000000000000000000000081526004016111369061244d565b60405180910390fd5b61114881611374565b50565b6111536112f6565b60006005811115611167576111666117ba565b5b600260009054906101000a900460ff166005811115611189576111886117ba565b5b146111c9576040517f08c379a00000000000000000000000000000000000000000000000000000000081526004016111c0906124df565b60405180910390fd5b60011515600460008373ffffffffffffffffffffffffffffffffffffffff1673ffffffffffffffffffffffffffffffffffffffff16815260200190815260200160002060000160009054906101000a900460ff1615150361125f576040517f08c379a00000000000000000000000000000000000000000000000000000000081526004016112569061254b565b60405180910390fd5b6001600460008373ffffffffffffffffffffffffffffffffffffffff1673ffffffffffffffffffffffffffffffffffffffff16815260200190815260200160002060000160006101000a81548160ff0219169083151502179055507f76f495f538ae23446b46f9ea62c1a4d8a985e56002509d25fd87a6dbbcff75ab81336040516112eb92919061256b565b60405180910390a150565b6112fe611438565b73ffffffffffffffffffffffffffffffffffffffff1661131c610a5a565b73ffffffffffffffffffffffffffffffffffffffff1614611372576040517f08c379a0000000000000000000000000000000000000000000000000000000008152600401611369906125e0565b60405180910390fd5b565b60008060009054906101000a900473ffffffffffffffffffffffffffffffffffffffff169050816000806101000a81548173ffffffffffffffffffffffffffffffffffffffff021916908373ffffffffffffffffffffffffffffffffffffffff1602179055508173ffffffffffffffffffffffffffffffffffffffff168173ffffffffffffffffffffffffffffffffffffffff167f8be0079c531659141344cd1fd0a4f28419497f9722a3daafe3b4186f6b6457e060405160405180910390a35050565b600033905090565b604051806040016040528060608152602001600081525090565b6040518060600160405280600015158152602001600015158152602001600081525090565b600080fd5b600080fd5b6000819050919050565b61149c81611489565b81146114a757600080fd5b50565b6000813590506114b981611493565b92915050565b6000602082840312156114d5576114d461147f565b5b60006114e3848285016114aa565b91505092915050565b600080fd5b600080fd5b600080fd5b60008083601f840112611511576115106114ec565b5b8235905067ffffffffffffffff81111561152e5761152d6114f1565b5b60208301915083600182028301111561154a576115496114f6565b5b9250929050565b600080602083850312156115685761156761147f565b5b600083013567ffffffffffffffff81111561158657611585611484565b5b611592858286016114fb565b92509250509250929050565b600081519050919050565b600082825260208201905092915050565b6000819050602082019050919050565b600081519050919050565b600082825260208201905092915050565b60005b838110156116045780820151818401526020810190506115e9565b60008484015250505050565b6000601f19601f8301169050919050565b600061162c826115ca565b61163681856115d5565b93506116468185602086016115e6565b61164f81611610565b840191505092915050565b61166381611489565b82525050565b600060408301600083015184820360008601526116868282611621565b915050602083015161169b602086018261165a565b508091505092915050565b60006116b28383611669565b905092915050565b6000602082019050919050565b60006116d28261159e565b6116dc81856115a9565b9350836020820285016116ee856115ba565b8060005b8581101561172a578484038952815161170b85826116a6565b9450611716836116ba565b925060208a019950506001810190506116f2565b50829750879550505050505092915050565b6000602082019050818103600083015261175681846116c7565b905092915050565b600073ffffffffffffffffffffffffffffffffffffffff82169050919050565b60006117898261175e565b9050919050565b6117998161177e565b82525050565b60006020820190506117b46000830184611790565b92915050565b7f4e487b7100000000000000000000000000000000000000000000000000000000600052602160045260246000fd5b600681106117fa576117f96117ba565b5b50565b600081905061180b826117e9565b919050565b600061181b826117fd565b9050919050565b61182b81611810565b82525050565b60006020820190506118466000830184611822565b92915050565b600060408301600083015184820360008601526118698282611621565b915050602083015161187e602086018261165a565b508091505092915050565b600060208201905081810360008301526118a3818461184c565b905092915050565b6118b481611489565b82525050565b60006020820190506118cf60008301846118ab565b92915050565b6118de8161177e565b81146118e957600080fd5b50565b6000813590506118fb816118d5565b92915050565b6000602082840312156119175761191661147f565b5b6000611925848285016118ec565b91505092915050565b60008115159050919050565b6119438161192e565b82525050565b60608201600082015161195f600085018261193a565b506020820151611972602085018261193a565b506040820151611985604085018261165a565b50505050565b60006060820190506119a06000830184611949565b92915050565b600082825260208201905092915050565b7f596f75277265206e6f74206120766f7465720000000000000000000000000000600082015250565b60006119ed6012836119a6565b91506119f8826119b7565b602082019050919050565b60006020820190508181036000830152611a1c816119e0565b9050919050565b7f566f74696e672073657373696f6e20686176656e74207374617274656420796560008201527f7400000000000000000000000000000000000000000000000000000000000000602082015250565b6000611a7f6021836119a6565b9150611a8a82611a23565b604082019050919050565b60006020820190508181036000830152611aae81611a72565b9050919050565b7f596f75206861766520616c726561647920766f74656400000000000000000000600082015250565b6000611aeb6016836119a6565b9150611af682611ab5565b602082019050919050565b60006020820190508181036000830152611b1a81611ade565b9050919050565b7f50726f706f73616c206e6f7420666f756e640000000000000000000000000000600082015250565b6000611b576012836119a6565b9150611b6282611b21565b602082019050919050565b60006020820190508181036000830152611b8681611b4a565b9050919050565b7f4e487b7100000000000000000000000000000000000000000000000000000000600052603260045260246000fd5b7f4e487b7100000000000000000000000000000000000000000000000000000000600052601160045260246000fd5b6000611bf682611489565b91507fffffffffffffffffffffffffffffffffffffffffffffffffffffffffffffffff8203611c2857611c27611bbc565b5b600182019050919050565b6000604082019050611c486000830185611790565b611c5560208301846118ab565b9392505050565b7f50726f706f73616c7320617265206e6f7420616c6c6f77656420796574000000600082015250565b6000611c92601d836119a6565b9150611c9d82611c5c565b602082019050919050565b60006020820190508181036000830152611cc181611c85565b9050919050565b50565b6000611cd86000836119a6565b9150611ce382611cc8565b600082019050919050565b60006020820190508181036000830152611d0781611ccb565b9050919050565b82818337600083830152505050565b6000611d2983856119a6565b9350611d36838584611d0e565b611d3f83611610565b840190509392505050565b60006020820190508181036000830152611d65818486611d1d565b90509392505050565b7f566f7573206e6520706f7576657a20706173206e65207269656e2070726f706f60008201527f7365720000000000000000000000000000000000000000000000000000000000602082015250565b6000611dca6023836119a6565b9150611dd582611d6e565b604082019050919050565b60006020820190508181036000830152611df981611dbd565b9050919050565b7f4e487b7100000000000000000000000000000000000000000000000000000000600052604160045260246000fd5b7f4e487b7100000000000000000000000000000000000000000000000000000000600052602260045260246000fd5b60006002820490506001821680611e7657607f821691505b602082108103611e8957611e88611e2f565b5b50919050565b60008190508160005260206000209050919050565b60006020601f8301049050919050565b600082821b905092915050565b600060088302611ef17fffffffffffffffffffffffffffffffffffffffffffffffffffffffffffffffff82611eb4565b611efb8683611eb4565b95508019841693508086168417925050509392505050565b6000819050919050565b6000611f38611f33611f2e84611489565b611f13565b611489565b9050919050565b6000819050919050565b611f5283611f1d565b611f66611f5e82611f3f565b848454611ec1565b825550505050565b600090565b611f7b611f6e565b611f86818484611f49565b505050565b5b81811015611faa57611f9f600082611f73565b600181019050611f8c565b5050565b601f821115611fef57611fc081611e8f565b611fc984611ea4565b81016020851015611fd8578190505b611fec611fe485611ea4565b830182611f8b565b50505b505050565b600082821c905092915050565b600061201260001984600802611ff4565b1980831691505092915050565b600061202b8383612001565b9150826002028217905092915050565b612044826115ca565b67ffffffffffffffff81111561205d5761205c611e00565b5b6120678254611e5e565b612072828285611fae565b600060209050601f8311600181146120a55760008415612093578287015190505b61209d858261201f565b865550612105565b601f1984166120b386611e8f565b60005b828110156120db578489015182556001820191506020850194506020810190506120b6565b868310156120f857848901516120f4601f891682612001565b8355505b6001600288020188555050505b505050505050565b600061211882611489565b915061212383611489565b925082820390508181111561213b5761213a611bbc565b5b92915050565b600060408201905061215660008301856118ab565b6121636020830184611790565b9392505050565b7f43757272656e7420737461747573206973206e6f7420766f74696e672073657360008201527f73696f6e20656e64656400000000000000000000000000000000000000000000602082015250565b60006121c6602a836119a6565b91506121d18261216a565b604082019050919050565b600060208201905081810360008301526121f5816121b9565b9050919050565b60006040820190506122116000830185611822565b61221e6020830184611822565b9392505050565b7f5265676973746572696e672070726f706f73616c732063616e7420626520737460008201527f6172746564206e6f770000000000000000000000000000000000000000000000602082015250565b60006122816029836119a6565b915061228c82612225565b604082019050919050565b600060208201905081810360008301526122b081612274565b9050919050565b7f5265676973746572696e672070726f706f73616c7320686176656e742073746160008201527f7274656420796574000000000000000000000000000000000000000000000000602082015250565b60006123136028836119a6565b915061231e826122b7565b604082019050919050565b6000602082019050818103600083015261234281612306565b9050919050565b7f5265676973746572696e672070726f706f73616c73207068617365206973206e60008201527f6f742066696e6973686564000000000000000000000000000000000000000000602082015250565b60006123a5602b836119a6565b91506123b082612349565b604082019050919050565b600060208201905081810360008301526123d481612398565b9050919050565b7f4f776e61626c653a206e6577206f776e657220697320746865207a65726f206160008201527f6464726573730000000000000000000000000000000000000000000000000000602082015250565b60006124376026836119a6565b9150612442826123db565b604082019050919050565b600060208201905081810360008301526124668161242a565b9050919050565b7f566f7465727320726567697374726174696f6e206973206e6f74206f70656e2060008201527f7965740000000000000000000000000000000000000000000000000000000000602082015250565b60006124c96023836119a6565b91506124d48261246d565b604082019050919050565b600060208201905081810360008301526124f8816124bc565b9050919050565b7f416c726561647920726567697374657265640000000000000000000000000000600082015250565b60006125356012836119a6565b9150612540826124ff565b602082019050919050565b6000602082019050818103600083015261256481612528565b9050919050565b60006040820190506125806000830185611790565b61258d6020830184611790565b9392505050565b7f4f776e61626c653a2063616c6c6572206973206e6f7420746865206f776e6572600082015250565b60006125ca6020836119a6565b91506125d582612594565b602082019050919050565b600060208201905081810360008301526125f9816125bd565b905091905056fea26469706673582212208bde9f168165a69f099db2f0cafd469d972342e333167ae03763f7d99148a77064736f6c63430008110033",
  "linkReferences": {},
  "deployedLinkReferences": {}
}